:1000000012C02CC02BC02AC029C028C027C026C0BF
:1000100025C024C023C0F6C021C020C01FC01EC000
:100020001DC01CC01BC011241FBECFE5D4E0DEBF25
:10003000CDBF10E0A0E6B0E0EEEFF2E002C0059028
:100040000D92A43EB107D9F710E0A4EEB0E001C0D4
:100050001D92A73EB107E1F7F3D04FC1D1CF90E099
:1000600003C00F920F909F5F9817D8F3089540E058
:1000700050E01AC020E00F920F902F5F2A3FD9F76F
:1000800020E00F920F902F5F2A3FD9F720E00F92C8
:100090000F902F5F2A3FD9F720E00F920F902F5F2C
:1000A0002A3FD9F74F5F5F4F4817590718F3089554
:1000B000282F9298939A82B38F7082BB92B3822F2B
:1000C000807F892B82BB80E00F920F908F5F8436F8
:1000D000D9F7939880E00F920F908F5F8436D9F70D
:1000E000939A82B38F7082BB82B32295207F822B3A
:1000F00082BB80E00F920F908F5F8436D9F7939880
:1001000080E00F920F908F5F8436D9F70895282FE3
:1001100082B38C6082BB82B38F7082BB92B3822F1A
:10012000807F892B82BB80E00F920F908F5F843697
:10013000D9F7939880E00F920F908F5F8436D9F7AC
:10014000939A82B38F7082BB82B32295207F822BD9
:1001500082BB80E00F920F908F5F8436D9F793981F
:1001600080E00F920F908F5F8436D9F7089582E375
:1001700090E07DDF959A9498939A939885E090E02B
:1001800076DF88E295DF88E093DF81E091DF80E031
:100190000F920F908F5F8436D9F786E089DF8CE06D
:1001A00087DF08951F93CF93DF93182FEB018CE027
:1001B0007FDF812F7DDF02C0AADF2196888188231F
:1001C000D9F7DF91CF911F9108955D9BFECF8CB938
:1001D0000895FC0104C05D9BFECF8CB931968081EF
:1001E0008823C9F708955F9BFECF8CB190E00895F6
:1001F00083E389B910BC8AB188698AB980B58668F9
:1002000080BD08951F920F920FB60F9211248F9305
:100210009F939CB19093E40081E08093E6005D9B06
:10022000FECF9CB9913611F4C09A03C0923609F4FE
:10023000C0989F918F910F900FBE0F901F901895AF
:10024000B89A18BA14BA8FEF85BB8EEF81BB12BA79
:100250008EDFCEDF789480E690E0BBDF80E868E751
:1002600070E0A0DF84EC99E002DF81E021DF989963
:100270000EC0989BFECF89E890E0ABDF80E869E98B
:1002800070E090DF88EE93E0F2DE81E011DF999973
:100290000EC0999BFECF87EA90E09BDF80E867EB7A
:1002A00070E080DF88EE93E0E2DE81E001DF9A9982
:1002B0000EC09A9BFECF85EC90E08BDF80E865ED69
:1002C00070E070DF88EE93E0D2DE81E0F1DE8091B5
:1002D000E600882361F21092E6008091E5008F5FCE
:1002E0008093E5008091E40012DF8091E500813188
:0E02F00008F4BDCF1092E500B8CFF894FFCF10
:1002FE00496E697469616C697A6174696F6E207395
:10030E00797374656D0D0A00204156522055534184
:10031E00525420544553542000427574746F6E200D
:10032E003120544553540D0A00427574746F6E207B
:10033E0031205445535400427574746F6E20322030
:10034E00544553540D0A00427574746F6E2032205A
:10035E005445535400427574746F6E2033205445C7
:10036E0053540D0A00427574746F6E203320544539
:04037E0053540001D3
:00000001FF
